{
  "contractName": "Marketplace",
  "abi": [
    {
      "inputs": [],
      "stateMutability": "nonpayable",
      "type": "constructor"
    },
    {
      "inputs": [],
      "name": "itemID",
      "outputs": [
        {
          "internalType": "uint256",
          "name": "",
          "type": "uint256"
        }
      ],
      "stateMutability": "view",
      "type": "function",
      "constant": true
    },
    {
      "inputs": [],
      "name": "getCommission",
      "outputs": [
        {
          "internalType": "uint256",
          "name": "",
          "type": "uint256"
        }
      ],
      "stateMutability": "view",
      "type": "function",
      "constant": true
    },
    {
      "inputs": [
        {
          "internalType": "address",
          "name": "itemContract",
          "type": "address"
        },
        {
          "internalType": "uint256",
          "name": "tokenId",
          "type": "uint256"
        }
      ],
      "name": "createItem",
      "outputs": [],
      "stateMutability": "payable",
      "type": "function",
      "payable": true
    },
    {
      "inputs": [
        {
          "internalType": "uint256",
          "name": "_itemId",
          "type": "uint256"
        },
        {
          "internalType": "uint256",
          "name": "price",
          "type": "uint256"
        }
      ],
      "name": "listItem",
      "outputs": [],
      "stateMutability": "nonpayable",
      "type": "function"
    },
    {
      "inputs": [
        {
          "internalType": "address",
          "name": "itemContract",
          "type": "address"
        },
        {
          "internalType": "uint256",
          "name": "_itemId",
          "type": "uint256"
        }
      ],
      "name": "sellItem",
      "outputs": [],
      "stateMutability": "payable",
      "type": "function",
      "payable": true
    },
    {
      "inputs": [],
      "name": "getMarketItems",
      "outputs": [
        {
          "components": [
            {
              "internalType": "uint256",
              "name": "itemId",
              "type": "uint256"
            },
            {
              "internalType": "address",
              "name": "itemContract",
              "type": "address"
            },
            {
              "internalType": "uint256",
              "name": "tokenId",
              "type": "uint256"
            },
            {
              "internalType": "address payable",
              "name": "minter",
              "type": "address"
            },
            {
              "internalType": "address payable",
              "name": "owner",
              "type": "address"
            },
            {
              "internalType": "uint256",
              "name": "price",
              "type": "uint256"
            },
            {
              "internalType": "bool",
              "name": "listed",
              "type": "bool"
            }
          ],
          "internalType": "struct Marketplace.NFT_Item[]",
          "name": "",
          "type": "tuple[]"
        }
      ],
      "stateMutability": "view",
      "type": "function",
      "constant": true
    },
    {
      "inputs": [],
      "name": "getBoughtItems",
      "outputs": [
        {
          "components": [
            {
              "internalType": "uint256",
              "name": "itemId",
              "type": "uint256"
            },
            {
              "internalType": "address",
              "name": "itemContract",
              "type": "address"
            },
            {
              "internalType": "uint256",
              "name": "tokenId",
              "type": "uint256"
            },
            {
              "internalType": "address payable",
              "name": "minter",
              "type": "address"
            },
            {
              "internalType": "address payable",
              "name": "owner",
              "type": "address"
            },
            {
              "internalType": "uint256",
              "name": "price",
              "type": "uint256"
            },
            {
              "internalType": "bool",
              "name": "listed",
              "type": "bool"
            }
          ],
          "internalType": "struct Marketplace.NFT_Item[]",
          "name": "",
          "type": "tuple[]"
        }
      ],
      "stateMutability": "view",
      "type": "function",
      "constant": true
    },
    {
      "inputs": [],
      "name": "getCreatedItems",
      "outputs": [
        {
          "components": [
            {
              "internalType": "uint256",
              "name": "itemId",
              "type": "uint256"
            },
            {
              "internalType": "address",
              "name": "itemContract",
              "type": "address"
            },
            {
              "internalType": "uint256",
              "name": "tokenId",
              "type": "uint256"
            },
            {
              "internalType": "address payable",
              "name": "minter",
              "type": "address"
            },
            {
              "internalType": "address payable",
              "name": "owner",
              "type": "address"
            },
            {
              "internalType": "uint256",
              "name": "price",
              "type": "uint256"
            },
            {
              "internalType": "bool",
              "name": "listed",
              "type": "bool"
            }
          ],
          "internalType": "struct Marketplace.NFT_Item[]",
          "name": "",
          "type": "tuple[]"
        }
      ],
      "stateMutability": "view",
      "type": "function",
      "constant": true
    }
  ],
  "bytecode": "0x608060405234801561001057600080fd5b5033600160006101000a81548173ffffffffffffffffffffffffffffffffffffffff021916908373ffffffffffffffffffffffffffffffffffffffff16021790555065e35fa931a0006002819055506001600081905550611de2806100766000396000f3fe60806040526004361061007b5760003560e01c806382750d531161004e57806382750d531461011d578063883efa67146101395780638edfa6cb14610162578063e65d6b491461018d5761007b565b8063096c5e1a1461008057806323a2ba521461009c57806329aa3a42146100c757806343cdef60146100f2575b600080fd5b61009a60048036038101906100959190611593565b6101b8565b005b3480156100a857600080fd5b506100b1610551565b6040516100be91906118c7565b60405180910390f35b3480156100d357600080fd5b506100dc610991565b6040516100e991906118c7565b60405180910390f35b3480156100fe57600080fd5b50610107610c6e565b60405161011491906119e9565b60405180910390f35b61013760048036038101906101329190611593565b610c74565b005b34801561014557600080fd5b50610160600480360381019061015b91906115cf565b610f72565b005b34801561016e57600080fd5b5061017761113d565b60405161018491906118c7565b60405180910390f35b34801561019957600080fd5b506101a26114a0565b6040516101af91906119e9565b60405180910390f35b80600060036000838152602001908152602001600020600001541415610213576040517f08c379a000000000000000000000000000000000000000000000000000000000815260040161020a90611969565b60405180910390fd5b6000600360008481526020019081526020016000209050600115158160060160009054906101000a900460ff16151514610282576040517f08c379a0000000000000000000000000000000000000000000000000000000008152600401610279906118e9565b60405180910390fd5b6000816005015490508034146102cd576040517f08c379a00000000000000000000000000000000000000000000000000000000081526004016102c490611989565b60405180910390fd5b60006103e8346103e36102e09190611a7f565b6102ea9190611a4e565b905060006103e83460056102fe9190611a7f565b6103089190611a4e565b90508360040160009054906101000a900473ffffffffffffffffffffffffffffffffffffffff1673ffffffffffffffffffffffffffffffffffffffff166108fc839081150290604051600060405180830381858888f19350505050158015610374573d6000803e3d6000fd5b508360030160009054906101000a900473ffffffffffffffffffffffffffffffffffffffff1673ffffffffffffffffffffffffffffffffffffffff166108fc829081150290604051600060405180830381858888f193505050501580156103df573d6000803e3d6000fd5b506000846002015490508773ffffffffffffffffffffffffffffffffffffffff166323b872dd8660040160009054906101000a900473ffffffffffffffffffffffffffffffffffffffff1633846040518463ffffffff1660e01b815260040161044a93929190611890565b600060405180830381600087803b15801561046457600080fd5b505af1158015610478573d6000803e3d6000fd5b50505050338560040160006101000a81548173ffffffffffffffffffffffffffffffffffffffff021916908373ffffffffffffffffffffffffffffffffffffffff16021790555060008560060160006101000a81548160ff021916908315150217905550600160009054906101000a900473ffffffffffffffffffffffffffffffffffffffff1673ffffffffffffffffffffffffffffffffffffffff166108fc6002549081150290604051600060405180830381858888f19350505050158015610546573d6000803e3d6000fd5b505050505050505050565b6060600080600190505b60005481101561065f573373ffffffffffffffffffffffffffffffffffffffff166003600083815260200190815260200160002060040160009054906101000a900473ffffffffffffffffffffffffffffffffffffffff1673ffffffffffffffffffffffffffffffffffffffff1614801561063857503373ffffffffffffffffffffffffffffffffffffffff166003600083815260200190815260200160002060030160009054906101000a900473ffffffffffffffffffffffffffffffffffffffff1673ffffffffffffffffffffffffffffffffffffffff1614155b1561064c57818061064890611b69565b9250505b808061065790611b69565b91505061055b565b5060008167ffffffffffffffff8111156106a2577f4e487b7100000000000000000000000000000000000000000000000000000000600052604160045260246000fd5b6040519080825280602002602001820160405280156106db57816020015b6106c86114aa565b8152602001906001900390816106c05790505b509050600080600190505b600054811015610987573373ffffffffffffffffffffffffffffffffffffffff166003600083815260200190815260200160002060040160009054906101000a900473ffffffffffffffffffffffffffffffffffffffff1673ffffffffffffffffffffffffffffffffffffffff161480156107c357503373ffffffffffffffffffffffffffffffffffffffff166003600083815260200190815260200160002060030160009054906101000a900473ffffffffffffffffffffffffffffffffffffffff1673ffffffffffffffffffffffffffffffffffffffff1614155b1561097457600360008281526020019081526020016000206040518060e0016040529081600082015481526020016001820160009054906101000a900473ffffffffffffffffffffffffffffffffffffffff1673ffffffffffffffffffffffffffffffffffffffff1673ffffffffffffffffffffffffffffffffffffffff168152602001600282015481526020016003820160009054906101000a900473ffffffffffffffffffffffffffffffffffffffff1673ffffffffffffffffffffffffffffffffffffffff1673ffffffffffffffffffffffffffffffffffffffff1681526020016004820160009054906101000a900473ffffffffffffffffffffffffffffffffffffffff1673ffffffffffffffffffffffffffffffffffffffff1673ffffffffffffffffffffffffffffffffffffffff168152602001600582015481526020016006820160009054906101000a900460ff16151515158152505083838151811061095a577f4e487b7100000000000000000000000000000000000000000000000000000000600052603260045260246000fd5b6020026020010181905250818061097090611b69565b9250505b808061097f90611b69565b9150506106e6565b5081935050505090565b6060600080600190505b6000548110156109f0576003600082815260200190815260200160002060060160009054906101000a900460ff16156109dd5781806109d990611b69565b9250505b80806109e890611b69565b91505061099b565b5060008167ffffffffffffffff811115610a33577f4e487b7100000000000000000000000000000000000000000000000000000000600052604160045260246000fd5b604051908082528060200260200182016040528015610a6c57816020015b610a596114aa565b815260200190600190039081610a515790505b5090506000805b600054811015610c64576003600082815260200190815260200160002060060160009054906101000a900460ff16610c5157600360008281526020019081526020016000206040518060e0016040529081600082015481526020016001820160009054906101000a900473ffffffffffffffffffffffffffffffffffffffff1673ffffffffffffffffffffffffffffffffffffffff1673ffffffffffffffffffffffffffffffffffffffff168152602001600282015481526020016003820160009054906101000a900473ffffffffffffffffffffffffffffffffffffffff1673ffffffffffffffffffffffffffffffffffffffff1673ffffffffffffffffffffffffffffffffffffffff1681526020016004820160009054906101000a900473ffffffffffffffffffffffffffffffffffffffff1673ffffffffffffffffffffffffffffffffffffffff1673ffffffffffffffffffffffffffffffffffffffff168152602001600582015481526020016006820160009054906101000a900460ff161515151581525050838381518110610c37577f4e487b7100000000000000000000000000000000000000000000000000000000600052603260045260246000fd5b60200260200101819052508180610c4d90611b69565b9250505b8080610c5c90611b69565b915050610a73565b5081935050505090565b60005481565b81813373ffffffffffffffffffffffffffffffffffffffff168273ffffffffffffffffffffffffffffffffffffffff16636352211e836040518263ffffffff1660e01b8152600401610cc691906119e9565b60206040518083038186803b158015610cde57600080fd5b505afa158015610cf2573d6000803e3d6000fd5b505050506040513d601f19601f82011682018060405250810190610d16919061156a565b73ffffffffffffffffffffffffffffffffffffffff1614610d6c576040517f08c379a0000000000000000000000000000000000000000000000000000000008152600401610d6390611949565b60405180910390fd5b6002543414610db0576040517f08c379a0000000000000000000000000000000000000000000000000000000008152600401610da790611929565b60405180910390fd5b6040518060e0016040528060005481526020018573ffffffffffffffffffffffffffffffffffffffff1681526020018481526020013373ffffffffffffffffffffffffffffffffffffffff1681526020013373ffffffffffffffffffffffffffffffffffffffff168152602001600081526020016000151581525060036000805481526020019081526020016000206000820151816000015560208201518160010160006101000a81548173ffffffffffffffffffffffffffffffffffffffff021916908373ffffffffffffffffffffffffffffffffffffffff1602179055506040820151816002015560608201518160030160006101000a81548173ffffffffffffffffffffffffffffffffffffffff021916908373ffffffffffffffffffffffffffffffffffffffff16021790555060808201518160040160006101000a81548173ffffffffffffffffffffffffffffffffffffffff021916908373ffffffffffffffffffffffffffffffffffffffff16021790555060a0820151816005015560c08201518160060160006101000a81548160ff021916908315150217905550905050600080815480929190610f6790611b69565b919050555050505050565b81600060036000838152602001908152602001600020600001541415610fcd576040517f08c379a0000000000000000000000000000000000000000000000000000000008152600401610fc490611969565b60405180910390fd5b60006003600085815260200190815260200160002090503373ffffffffffffffffffffffffffffffffffffffff168160040160009054906101000a900473ffffffffffffffffffffffffffffffffffffffff1673ffffffffffffffffffffffffffffffffffffffff1614611076576040517f08c379a000000000000000000000000000000000000000000000000000000000815260040161106d90611909565b60405180910390fd5b600015158160060160009054906101000a900460ff161515146110ce576040517f08c379a00000000000000000000000000000000000000000000000000000000081526004016110c5906119a9565b60405180910390fd5b60008311611111576040517f08c379a0000000000000000000000000000000000000000000000000000000008152600401611108906119c9565b60405180910390fd5b82816005018190555060018160060160006101000a81548160ff02191690831515021790555050505050565b6060600080600190505b6000548110156111dd573373ffffffffffffffffffffffffffffffffffffffff166003600083815260200190815260200160002060030160009054906101000a900473ffffffffffffffffffffffffffffffffffffffff1673ffffffffffffffffffffffffffffffffffffffff1614156111ca5781806111c690611b69565b9250505b80806111d590611b69565b915050611147565b5060008167ffffffffffffffff811115611220577f4e487b7100000000000000000000000000000000000000000000000000000000600052604160045260246000fd5b60405190808252806020026020018201604052801561125957816020015b6112466114aa565b81526020019060019003908161123e5790505b509050600080600190505b600054811015611496573373ffffffffffffffffffffffffffffffffffffffff166003600083815260200190815260200160002060030160009054906101000a900473ffffffffffffffffffffffffffffffffffffffff1673ffffffffffffffffffffffffffffffffffffffff161461148357600360008281526020019081526020016000206040518060e0016040529081600082015481526020016001820160009054906101000a900473ffffffffffffffffffffffffffffffffffffffff1673ffffffffffffffffffffffffffffffffffffffff1673ffffffffffffffffffffffffffffffffffffffff168152602001600282015481526020016003820160009054906101000a900473ffffffffffffffffffffffffffffffffffffffff1673ffffffffffffffffffffffffffffffffffffffff1673ffffffffffffffffffffffffffffffffffffffff1681526020016004820160009054906101000a900473ffffffffffffffffffffffffffffffffffffffff1673ffffffffffffffffffffffffffffffffffffffff1673ffffffffffffffffffffffffffffffffffffffff168152602001600582015481526020016006820160009054906101000a900460ff161515151581525050838381518110611469577f4e487b7100000000000000000000000000000000000000000000000000000000600052603260045260246000fd5b6020026020010181905250818061147f90611b69565b9250505b808061148e90611b69565b915050611264565b5081935050505090565b6000600254905090565b6040518060e0016040528060008152602001600073ffffffffffffffffffffffffffffffffffffffff16815260200160008152602001600073ffffffffffffffffffffffffffffffffffffffff168152602001600073ffffffffffffffffffffffffffffffffffffffff168152602001600081526020016000151581525090565b60008135905061153a81611d7e565b92915050565b60008151905061154f81611d7e565b92915050565b60008135905061156481611d95565b92915050565b60006020828403121561157c57600080fd5b600061158a84828501611540565b91505092915050565b600080604083850312156115a657600080fd5b60006115b48582860161152b565b92505060206115c585828601611555565b9150509250929050565b600080604083850312156115e257600080fd5b60006115f085828601611555565b925050602061160185828601611555565b9150509250929050565b600061161783836117e4565b60e08301905092915050565b61162c81611b33565b82525050565b61163b81611aeb565b82525050565b61164a81611ad9565b82525050565b61165981611ad9565b82525050565b600061166a82611a14565b6116748185611a2c565b935061167f83611a04565b8060005b838110156116b0578151611697888261160b565b97506116a283611a1f565b925050600181019050611683565b5085935050505092915050565b6116c681611afd565b82525050565b60006116d9602083611a3d565b91506116e482611c10565b602082019050919050565b60006116fc601883611a3d565b915061170782611c39565b602082019050919050565b600061171f602983611a3d565b915061172a82611c62565b604082019050919050565b6000611742601b83611a3d565b915061174d82611cb1565b602082019050919050565b6000611765601283611a3d565b915061177082611cda565b602082019050919050565b6000611788601583611a3d565b915061179382611d03565b602082019050919050565b60006117ab601383611a3d565b91506117b682611d2c565b602082019050919050565b60006117ce601c83611a3d565b91506117d982611d55565b602082019050919050565b60e0820160008201516117fa6000850182611872565b50602082015161180d6020850182611641565b5060408201516118206040850182611872565b5060608201516118336060850182611632565b5060808201516118466080850182611632565b5060a082015161185960a0850182611872565b5060c082015161186c60c08501826116bd565b50505050565b61187b81611b29565b82525050565b61188a81611b29565b82525050565b60006060820190506118a56000830186611623565b6118b26020830185611650565b6118bf6040830184611881565b949350505050565b600060208201905081810360008301526118e1818461165f565b905092915050565b60006020820190508181036000830152611902816116cc565b9050919050565b60006020820190508181036000830152611922816116ef565b9050919050565b6000602082019050818103600083015261194281611712565b9050919050565b6000602082019050818103600083015261196281611735565b9050919050565b6000602082019050818103600083015261198281611758565b9050919050565b600060208201905081810360008301526119a28161177b565b9050919050565b600060208201905081810360008301526119c28161179e565b9050919050565b600060208201905081810360008301526119e2816117c1565b9050919050565b60006020820190506119fe6000830184611881565b92915050565b6000819050602082019050919050565b600081519050919050565b6000602082019050919050565b600082825260208201905092915050565b600082825260208201905092915050565b6000611a5982611b29565b9150611a6483611b29565b925082611a7457611a73611be1565b5b828204905092915050565b6000611a8a82611b29565b9150611a9583611b29565b9250817fffffffffffffffffffffffffffffffffffffffffffffffffffffffffffffffff0483118215151615611ace57611acd611bb2565b5b828202905092915050565b6000611ae482611b09565b9050919050565b6000611af682611b09565b9050919050565b60008115159050919050565b600073ffffffffffffffffffffffffffffffffffffffff82169050919050565b6000819050919050565b6000611b3e82611b45565b9050919050565b6000611b5082611b57565b9050919050565b6000611b6282611b09565b9050919050565b6000611b7482611b29565b91507fffffffffffffffffffffffffffffffffffffffffffffffffffffffffffffffff821415611ba757611ba6611bb2565b5b600182019050919050565b7f4e487b7100000000000000000000000000000000000000000000000000000000600052601160045260246000fd5b7f4e487b7100000000000000000000000000000000000000000000000000000000600052601260045260246000fd5b7f4974656d206973206e6f74206c6973746564206f6e20746865206d61726b6574600082015250565b7f4f6e6c79206974656d206f776e65722063616e206c6973740000000000000000600082015250565b7f5468652073656e74207072696365206d75737420626520657175616c20746f2060008201527f636f6d6d6973696f6e0000000000000000000000000000000000000000000000602082015250565b7f43616e206f6e6c792061646420796f7572206f776e20746f6b656e0000000000600082015250565b7f4e6f2073756368206974656d2065786973740000000000000000000000000000600082015250565b7f4e6f7420656e6f7567682076616c75652073656e740000000000000000000000600082015250565b7f4974656d20616c7265616479206c697374656400000000000000000000000000600082015250565b7f5072696365206d7573742062652067726561746572207468616e203000000000600082015250565b611d8781611ad9565b8114611d9257600080fd5b50565b611d9e81611b29565b8114611da957600080fd5b5056fea2646970667358221220e2d913ec75baf27a3f7346b6dc04c30fc9ed4004af41b45332a453f6c866688a64736f6c63430008040033",
  "immutableReferences": {},
  "source": "// SPDX-License-Identifier: MIT\r\npragma solidity >=0.8.0;\r\n\r\nimport \"@openzeppelin/contracts/token/ERC721/ERC721.sol\";\r\n\r\ncontract Marketplace {\r\n\r\n    /*\r\n        - this struct is used to store the details of the Items\r\n     */\r\n    struct NFT_Item {\r\n        uint256 itemId;\r\n        address itemContract;\r\n        uint256 tokenId;\r\n        address payable minter;\r\n        address payable owner;\r\n        uint256 price;\r\n        bool listed;\r\n    }\r\n\r\n    /*\r\n        State Variables\r\n            - Current Item Id\r\n            - Owner of the Marketplace\r\n            - Commission per sale of NFT\r\n     */\r\n    uint256 public itemID;\r\n    address payable private owner;\r\n    uint256 private commission;\r\n\r\n    /*\r\n        mapping from ItemID to NFT_Item struct\r\n    */\r\n    mapping(uint256 => NFT_Item) private idToItem;\r\n\r\n    /*\r\n        constructor sets the owner of contract and the commission fees\r\n     */\r\n    constructor() {\r\n        owner = payable(msg.sender);\r\n        commission = 0.00025 ether;\r\n        itemID = 1;\r\n    }\r\n\r\n    /*\r\n        - this function returns the commission price for listing an nft on this market place\r\n        - this commission goes to the owner of this marketplace\r\n        - the commission is transfered to the owner when the listed nft is sold\r\n     */\r\n    function getCommission() public view returns (uint256) {\r\n        return commission;\r\n    }\r\n\r\n    /*\r\n        - this function creates an external nft as an item on the market place\r\n        - for listing on the marketplace, the sender must pay the commission fees; the listing price should be greater than 0;\r\n        the owner of the token can only list the token\r\n        - intially the item is not listed for sale\r\n        - the owner and minter of the token is set to msg.sender and it's price is set to 0\r\n\r\n    */\r\n    function createItem(address itemContract, uint256 tokenId)\r\n        public\r\n        payable\r\n        TokenOwnerOnly(itemContract, tokenId)\r\n    {\r\n        require(\r\n            msg.value == commission,\r\n            \"The sent price must be equal to commision\"\r\n        );\r\n\r\n        idToItem[itemID] = NFT_Item(\r\n            itemID,\r\n            itemContract,\r\n            tokenId,\r\n            payable(msg.sender),\r\n            payable(msg.sender),\r\n            0,\r\n            false\r\n        );\r\n        itemID++;\r\n    }\r\n\r\n    /*\r\n        - function to list items that are not currently listed\r\n        - first check : If Item with the given _itemId exist or not\r\n        - second check : whether the current item's owner is the same as the msg.sender\r\n        - third check : if the Item is already listed\r\n        - fourth check : if the given price is greater than 0\r\n        - if all the conditions are satisfied, change the listed value of the Item to true and set the price as specifed\r\n     */\r\n    function listItem(uint256 _itemId, uint256 price)\r\n        public\r\n        ItemExist(_itemId)\r\n    {\r\n        NFT_Item storage item = idToItem[_itemId];\r\n        require(item.owner == msg.sender, \"Only item owner can list\");\r\n        require(item.listed == false, \"Item already listed\");\r\n        require(price > 0, \"Price must be greater than 0\");\r\n\r\n        item.price = price;\r\n        item.listed = true;\r\n    }\r\n\r\n    /*\r\n        - this function is used to sell listed items on the marketplace\r\n        - first check : if Item with given _itemId exist or not\r\n        - second check : whether the item is listed on the marketplace or not\r\n        - third check : if the buyer has sent enough money\r\n        - if all conditions are true then transfer 99.5% amount to the owner of the item and 0.5% to the minter of the item\r\n        - transfer the nft from the previous owner to the new onwer\r\n        - change the owner and listing status of the item\r\n     */\r\n    function sellItem(address itemContract, uint256 _itemId)\r\n        public\r\n        payable\r\n        ItemExist(_itemId)\r\n    {\r\n        NFT_Item storage item = idToItem[_itemId];\r\n\r\n        require(item.listed == true, \"Item is not listed on the market\");\r\n\r\n        uint256 price = item.price;\r\n        require(msg.value == price, \"Not enough value sent\");\r\n\r\n        uint256 ownerAmt = (995 * msg.value) / 1000;\r\n        uint256 minterAmt = (5 * msg.value) / 1000;\r\n\r\n        item.owner.transfer(ownerAmt);\r\n        item.minter.transfer(minterAmt);\r\n\r\n        uint256 tokenId = item.tokenId;\r\n\r\n        ERC721(itemContract).transferFrom(item.owner, msg.sender, tokenId);\r\n\r\n        item.owner = payable(msg.sender);\r\n        item.listed = false;\r\n\r\n        owner.transfer(commission);\r\n    }\r\n\r\n    /*\r\n        - this function is used to get the items that are listed for sale in the marketplace\r\n        - first find the number of such items\r\n        - then create an array of type NFT_Item of the given size\r\n        - iterater over all the items and add them to the array if their listing status is true\r\n        - return the struct array\r\n    */\r\n    function getMarketItems() public view returns (NFT_Item[] memory) {\r\n        uint256 availiable = 0;\r\n        for (uint256 i = 1; i < itemID; i++) {\r\n            if (idToItem[i].listed) {\r\n                availiable++;\r\n            }\r\n        }\r\n\r\n        NFT_Item[] memory items = new NFT_Item[](availiable);\r\n        uint256 curr = 0;\r\n        for (uint256 i = 0; i < itemID; i++) {\r\n            if (!idToItem[i].listed) {\r\n                items[curr] = idToItem[i];\r\n                curr++;\r\n            }\r\n        }\r\n        return items;\r\n    }\r\n\r\n    /*\r\n        - this function returns all the items bought by the current user\r\n        - iterater over all the NFT_Items and count the number of items which the user is the owner of but not the minter\r\n        - then create an array of type NFT_Item of the given size\r\n        - iterater over all the items and add them to the array if given condition is true\r\n        - return the struct array\r\n     */\r\n    function getBoughtItems() public view returns (NFT_Item[] memory) {\r\n        uint256 count = 0;\r\n        for (uint256 i = 1; i < itemID; i++) {\r\n            if (\r\n                (idToItem[i].owner == msg.sender) &&\r\n                (idToItem[i].minter != msg.sender)\r\n            ) {\r\n                count++;\r\n            }\r\n        }\r\n        NFT_Item[] memory items = new NFT_Item[](count);\r\n        uint256 curr = 0;\r\n        for (uint256 i = 1; i < itemID; i++) {\r\n            if (\r\n                (idToItem[i].owner == msg.sender) &&\r\n                (idToItem[i].minter != msg.sender)\r\n            ) {\r\n                items[curr] = idToItem[i];\r\n                curr++;\r\n            }\r\n        }\r\n        return items;\r\n    }\r\n\r\n    /*\r\n        - this function returns all the items that are created by the current user\r\n        - iterater over all the NFT_Items and count the number of items which the user is the minter\r\n        - then create an array of type NFT_Item of the given size\r\n        - iterater over all the items and add them to the array if given condition is true\r\n        - return the struct array\r\n    */\r\n    function getCreatedItems() public view returns (NFT_Item[] memory) {\r\n        uint256 count = 0;\r\n        for (uint256 i = 1; i < itemID; i++) {\r\n            if (idToItem[i].minter == msg.sender) {\r\n                count++;\r\n            }\r\n        }\r\n        NFT_Item[] memory items = new NFT_Item[](count);\r\n        uint256 curr = 0;\r\n        for (uint256 i = 1; i < itemID; i++) {\r\n            if (idToItem[i].minter != msg.sender) {\r\n                items[curr] = idToItem[i];\r\n                curr++;\r\n            }\r\n        }\r\n        return items;\r\n    }\r\n\r\n    /*\r\n        Modifiers\r\n     */\r\n    modifier ItemExist(uint256 _itemId) {\r\n        require(idToItem[_itemId].itemId != 0, \"No such item exist\");\r\n        _;\r\n    }\r\n\r\n    modifier TokenOwnerOnly(address itemContract, uint256 tokenId) {\r\n        require(\r\n            ERC721(itemContract).ownerOf(tokenId) == msg.sender,\r\n            \"Can only add your own token\"\r\n        );\r\n        _;\r\n    }\r\n}\r\n",
  "sourcePath": "C:\\Users\\priya\\OneDrive\\Desktop\\Projects\\nft-marketplace\\contracts\\Marketplace.sol",
  "compiler": {
    "name": "solc",
    "version": "0.8.4+commit.c7e474f2.Emscripten.clang"
  },
  "schemaVersion": "3.4.3",
  "updatedAt": "2021-12-17T14:41:50.917Z",
  "networkType": "ethereum",
  "devdoc": {
    "kind": "dev",
    "methods": {},
    "version": 1
  },
  "userdoc": {
    "kind": "user",
    "methods": {},
    "version": 1
  }
}