{
  "contractName": "Marketplace",
  "abi": [
    {
      "inputs": [],
      "stateMutability": "nonpayable",
      "type": "constructor"
    },
    {
      "anonymous": false,
      "inputs": [
        {
          "indexed": true,
          "internalType": "uint256",
          "name": "itemId",
          "type": "uint256"
        },
        {
          "indexed": true,
          "internalType": "address",
          "name": "itemContract",
          "type": "address"
        },
        {
          "indexed": true,
          "internalType": "uint256",
          "name": "tokenId",
          "type": "uint256"
        },
        {
          "indexed": false,
          "internalType": "address",
          "name": "seller",
          "type": "address"
        },
        {
          "indexed": false,
          "internalType": "address",
          "name": "owner",
          "type": "address"
        },
        {
          "indexed": false,
          "internalType": "uint256",
          "name": "price",
          "type": "uint256"
        },
        {
          "indexed": false,
          "internalType": "bool",
          "name": "sold",
          "type": "bool"
        }
      ],
      "name": "ItemCreated",
      "type": "event"
    },
    {
      "inputs": [],
      "name": "getCommission",
      "outputs": [
        {
          "internalType": "uint256",
          "name": "",
          "type": "uint256"
        }
      ],
      "stateMutability": "view",
      "type": "function",
      "constant": true
    },
    {
      "inputs": [
        {
          "internalType": "address",
          "name": "itemContract",
          "type": "address"
        },
        {
          "internalType": "uint256",
          "name": "tokenId",
          "type": "uint256"
        },
        {
          "internalType": "uint256",
          "name": "price",
          "type": "uint256"
        }
      ],
      "name": "createItem",
      "outputs": [],
      "stateMutability": "payable",
      "type": "function",
      "payable": true
    },
    {
      "inputs": [
        {
          "internalType": "address",
          "name": "itemContract",
          "type": "address"
        },
        {
          "internalType": "uint256",
          "name": "_itemId",
          "type": "uint256"
        }
      ],
      "name": "sellItem",
      "outputs": [],
      "stateMutability": "payable",
      "type": "function",
      "payable": true
    },
    {
      "inputs": [],
      "name": "getMarketItems",
      "outputs": [
        {
          "components": [
            {
              "internalType": "uint256",
              "name": "itemId",
              "type": "uint256"
            },
            {
              "internalType": "address",
              "name": "itemContract",
              "type": "address"
            },
            {
              "internalType": "uint256",
              "name": "tokenId",
              "type": "uint256"
            },
            {
              "internalType": "address payable",
              "name": "owner",
              "type": "address"
            },
            {
              "internalType": "address payable",
              "name": "seller",
              "type": "address"
            },
            {
              "internalType": "uint256",
              "name": "price",
              "type": "uint256"
            },
            {
              "internalType": "bool",
              "name": "sold",
              "type": "bool"
            }
          ],
          "internalType": "struct Marketplace.NFT_Item[]",
          "name": "",
          "type": "tuple[]"
        }
      ],
      "stateMutability": "view",
      "type": "function",
      "constant": true
    },
    {
      "inputs": [],
      "name": "getBoughtItems",
      "outputs": [
        {
          "components": [
            {
              "internalType": "uint256",
              "name": "itemId",
              "type": "uint256"
            },
            {
              "internalType": "address",
              "name": "itemContract",
              "type": "address"
            },
            {
              "internalType": "uint256",
              "name": "tokenId",
              "type": "uint256"
            },
            {
              "internalType": "address payable",
              "name": "owner",
              "type": "address"
            },
            {
              "internalType": "address payable",
              "name": "seller",
              "type": "address"
            },
            {
              "internalType": "uint256",
              "name": "price",
              "type": "uint256"
            },
            {
              "internalType": "bool",
              "name": "sold",
              "type": "bool"
            }
          ],
          "internalType": "struct Marketplace.NFT_Item[]",
          "name": "",
          "type": "tuple[]"
        }
      ],
      "stateMutability": "view",
      "type": "function",
      "constant": true
    },
    {
      "inputs": [],
      "name": "getCreatedItems",
      "outputs": [
        {
          "components": [
            {
              "internalType": "uint256",
              "name": "itemId",
              "type": "uint256"
            },
            {
              "internalType": "address",
              "name": "itemContract",
              "type": "address"
            },
            {
              "internalType": "uint256",
              "name": "tokenId",
              "type": "uint256"
            },
            {
              "internalType": "address payable",
              "name": "owner",
              "type": "address"
            },
            {
              "internalType": "address payable",
              "name": "seller",
              "type": "address"
            },
            {
              "internalType": "uint256",
              "name": "price",
              "type": "uint256"
            },
            {
              "internalType": "bool",
              "name": "sold",
              "type": "bool"
            }
          ],
          "internalType": "struct Marketplace.NFT_Item[]",
          "name": "",
          "type": "tuple[]"
        }
      ],
      "stateMutability": "view",
      "type": "function",
      "constant": true
    }
  ],
  "bytecode": "0x608060405234801561001057600080fd5b5033600160006101000a81548173ffffffffffffffffffffffffffffffffffffffff021916908373ffffffffffffffffffffffffffffffffffffffff16021790555065e35fa931a00060028190555061165a8061006e6000396000f3fe6080604052600436106100555760003560e01c8063096c5e1a1461005a57806323a2ba521461007657806329aa3a42146100a157806357baf0fb146100cc5780638edfa6cb146100e8578063e65d6b4914610113575b600080fd5b610074600480360381019061006f91906110bf565b61013e565b005b34801561008257600080fd5b5061008b610355565b604051610098919061139c565b60405180910390f35b3480156100ad57600080fd5b506100b66106b9565b6040516100c3919061139c565b60405180910390f35b6100e660048036038101906100e191906110fb565b610995565b005b3480156100f457600080fd5b506100fd610ca6565b60405161010a919061139c565b60405180910390f35b34801561011f57600080fd5b5061012861100a565b604051610135919061141e565b60405180910390f35b60006003600083815260200190815260200160002090506000816005015490506000826002015490508134146101a9576040517f08c379a00000000000000000000000000000000000000000000000000000000081526004016101a0906113de565b60405180910390fd5b8260040160009054906101000a900473ffffffffffffffffffffffffffffffffffffffff1673ffffffffffffffffffffffffffffffffffffffff166108fc349081150290604051600060405180830381858888f19350505050158015610213573d6000803e3d6000fd5b508473ffffffffffffffffffffffffffffffffffffffff166323b872dd3033846040518463ffffffff1660e01b815260040161025193929190611320565b600060405180830381600087803b15801561026b57600080fd5b505af115801561027f573d6000803e3d6000fd5b50505050338360030160006101000a81548173ffffffffffffffffffffffffffffffffffffffff021916908373ffffffffffffffffffffffffffffffffffffffff16021790555060018360060160006101000a81548160ff021916908315150217905550600160009054906101000a900473ffffffffffffffffffffffffffffffffffffffff1673ffffffffffffffffffffffffffffffffffffffff166108fc6002549081150290604051600060405180830381858888f1935050505015801561034d573d6000803e3d6000fd5b505050505050565b6060600080600190505b6000548110156103f5573373ffffffffffffffffffffffffffffffffffffffff166003600083815260200190815260200160002060030160009054906101000a900473ffffffffffffffffffffffffffffffffffffffff1673ffffffffffffffffffffffffffffffffffffffff1614156103e25781806103de906114dd565b9250505b80806103ed906114dd565b91505061035f565b5060008167ffffffffffffffff811115610438577f4e487b7100000000000000000000000000000000000000000000000000000000600052604160045260246000fd5b60405190808252806020026020018201604052801561047157816020015b61045e611014565b8152602001906001900390816104565790505b509050600080600190505b6000548110156106af573373ffffffffffffffffffffffffffffffffffffffff166003600083815260200190815260200160002060030160009054906101000a900473ffffffffffffffffffffffffffffffffffffffff1673ffffffffffffffffffffffffffffffffffffffff16141561069c57600360008281526020019081526020016000206040518060e0016040529081600082015481526020016001820160009054906101000a900473ffffffffffffffffffffffffffffffffffffffff1673ffffffffffffffffffffffffffffffffffffffff1673ffffffffffffffffffffffffffffffffffffffff168152602001600282015481526020016003820160009054906101000a900473ffffffffffffffffffffffffffffffffffffffff1673ffffffffffffffffffffffffffffffffffffffff1673ffffffffffffffffffffffffffffffffffffffff1681526020016004820160009054906101000a900473ffffffffffffffffffffffffffffffffffffffff1673ffffffffffffffffffffffffffffffffffffffff1673ffffffffffffffffffffffffffffffffffffffff168152602001600582015481526020016006820160009054906101000a900460ff161515151581525050838381518110610682577f4e487b7100000000000000000000000000000000000000000000000000000000600052603260045260246000fd5b60200260200101819052508180610698906114dd565b9250505b80806106a7906114dd565b91505061047c565b5081935050505090565b6060600080600190505b600054811015610717576003600082815260200190815260200160002060060160009054906101000a900460ff16610704578180610700906114dd565b9250505b808061070f906114dd565b9150506106c3565b5060008167ffffffffffffffff81111561075a577f4e487b7100000000000000000000000000000000000000000000000000000000600052604160045260246000fd5b60405190808252806020026020018201604052801561079357816020015b610780611014565b8152602001906001900390816107785790505b5090506000805b60005481101561098b576003600082815260200190815260200160002060060160009054906101000a900460ff1661097857600360008281526020019081526020016000206040518060e0016040529081600082015481526020016001820160009054906101000a900473ffffffffffffffffffffffffffffffffffffffff1673ffffffffffffffffffffffffffffffffffffffff1673ffffffffffffffffffffffffffffffffffffffff168152602001600282015481526020016003820160009054906101000a900473ffffffffffffffffffffffffffffffffffffffff1673ffffffffffffffffffffffffffffffffffffffff1673ffffffffffffffffffffffffffffffffffffffff1681526020016004820160009054906101000a900473ffffffffffffffffffffffffffffffffffffffff1673ffffffffffffffffffffffffffffffffffffffff1673ffffffffffffffffffffffffffffffffffffffff168152602001600582015481526020016006820160009054906101000a900460ff16151515158152505083838151811061095e577f4e487b7100000000000000000000000000000000000000000000000000000000600052603260045260246000fd5b60200260200101819052508180610974906114dd565b9250505b8080610983906114dd565b91505061079a565b5081935050505090565b600081116109d8576040517f08c379a00000000000000000000000000000000000000000000000000000000081526004016109cf906113fe565b60405180910390fd5b6002543414610a1c576040517f08c379a0000000000000000000000000000000000000000000000000000000008152600401610a13906113be565b60405180910390fd5b6040518060e0016040528060005481526020018473ffffffffffffffffffffffffffffffffffffffff1681526020018381526020013373ffffffffffffffffffffffffffffffffffffffff168152602001600073ffffffffffffffffffffffffffffffffffffffff1681526020018281526020016000151581525060036000805481526020019081526020016000206000820151816000015560208201518160010160006101000a81548173ffffffffffffffffffffffffffffffffffffffff021916908373ffffffffffffffffffffffffffffffffffffffff1602179055506040820151816002015560608201518160030160006101000a81548173ffffffffffffffffffffffffffffffffffffffff021916908373ffffffffffffffffffffffffffffffffffffffff16021790555060808201518160040160006101000a81548173ffffffffffffffffffffffffffffffffffffffff021916908373ffffffffffffffffffffffffffffffffffffffff16021790555060a0820151816005015560c08201518160060160006101000a81548160ff0219169083151502179055509050508273ffffffffffffffffffffffffffffffffffffffff166323b872dd3330856040518463ffffffff1660e01b8152600401610bfe93929190611320565b600060405180830381600087803b158015610c1857600080fd5b505af1158015610c2c573d6000803e3d6000fd5b50505050818373ffffffffffffffffffffffffffffffffffffffff166000547feafffdc459cdbf1037f95d7034bacc7d5709b281c19fc17291040a82d81d1eb4336000866000604051610c829493929190611357565b60405180910390a4600080815480929190610c9c906114dd565b9190505550505050565b6060600080600190505b600054811015610d46573373ffffffffffffffffffffffffffffffffffffffff166003600083815260200190815260200160002060040160009054906101000a900473ffffffffffffffffffffffffffffffffffffffff1673ffffffffffffffffffffffffffffffffffffffff161415610d33578180610d2f906114dd565b9250505b8080610d3e906114dd565b915050610cb0565b5060008167ffffffffffffffff811115610d89577f4e487b7100000000000000000000000000000000000000000000000000000000600052604160045260246000fd5b604051908082528060200260200182016040528015610dc257816020015b610daf611014565b815260200190600190039081610da75790505b509050600080600190505b600054811015611000573373ffffffffffffffffffffffffffffffffffffffff166003600083815260200190815260200160002060040160009054906101000a900473ffffffffffffffffffffffffffffffffffffffff1673ffffffffffffffffffffffffffffffffffffffff161415610fed57600360008281526020019081526020016000206040518060e0016040529081600082015481526020016001820160009054906101000a900473ffffffffffffffffffffffffffffffffffffffff1673ffffffffffffffffffffffffffffffffffffffff1673ffffffffffffffffffffffffffffffffffffffff168152602001600282015481526020016003820160009054906101000a900473ffffffffffffffffffffffffffffffffffffffff1673ffffffffffffffffffffffffffffffffffffffff1673ffffffffffffffffffffffffffffffffffffffff1681526020016004820160009054906101000a900473ffffffffffffffffffffffffffffffffffffffff1673ffffffffffffffffffffffffffffffffffffffff1673ffffffffffffffffffffffffffffffffffffffff168152602001600582015481526020016006820160009054906101000a900460ff161515151581525050838381518110610fd3577f4e487b7100000000000000000000000000000000000000000000000000000000600052603260045260246000fd5b60200260200101819052508180610fe9906114dd565b9250505b8080610ff8906114dd565b915050610dcd565b5081935050505090565b6000600254905090565b6040518060e0016040528060008152602001600073ffffffffffffffffffffffffffffffffffffffff16815260200160008152602001600073ffffffffffffffffffffffffffffffffffffffff168152602001600073ffffffffffffffffffffffffffffffffffffffff168152602001600081526020016000151581525090565b6000813590506110a4816115f6565b92915050565b6000813590506110b98161160d565b92915050565b600080604083850312156110d257600080fd5b60006110e085828601611095565b92505060206110f1858286016110aa565b9150509250929050565b60008060006060848603121561111057600080fd5b600061111e86828701611095565b935050602061112f868287016110aa565b9250506040611140868287016110aa565b9150509250925092565b60006111568383611274565b60e08301905092915050565b61116b81611495565b82525050565b61117a81611483565b82525050565b61118981611483565b82525050565b600061119a82611449565b6111a48185611461565b93506111af83611439565b8060005b838110156111e05781516111c7888261114a565b97506111d283611454565b9250506001810190506111b3565b5085935050505092915050565b6111f6816114a7565b82525050565b611205816114a7565b82525050565b6000611218602983611472565b915061122382611555565b604082019050919050565b600061123b601583611472565b9150611246826115a4565b602082019050919050565b600061125e601c83611472565b9150611269826115cd565b602082019050919050565b60e08201600082015161128a6000850182611302565b50602082015161129d6020850182611171565b5060408201516112b06040850182611302565b5060608201516112c36060850182611162565b5060808201516112d66080850182611162565b5060a08201516112e960a0850182611302565b5060c08201516112fc60c08501826111ed565b50505050565b61130b816114d3565b82525050565b61131a816114d3565b82525050565b60006060820190506113356000830186611180565b6113426020830185611180565b61134f6040830184611311565b949350505050565b600060808201905061136c6000830187611180565b6113796020830186611180565b6113866040830185611311565b61139360608301846111fc565b95945050505050565b600060208201905081810360008301526113b6818461118f565b905092915050565b600060208201905081810360008301526113d78161120b565b9050919050565b600060208201905081810360008301526113f78161122e565b9050919050565b6000602082019050818103600083015261141781611251565b9050919050565b60006020820190506114336000830184611311565b92915050565b6000819050602082019050919050565b600081519050919050565b6000602082019050919050565b600082825260208201905092915050565b600082825260208201905092915050565b600061148e826114b3565b9050919050565b60006114a0826114b3565b9050919050565b60008115159050919050565b600073ffffffffffffffffffffffffffffffffffffffff82169050919050565b6000819050919050565b60006114e8826114d3565b91507fffffffffffffffffffffffffffffffffffffffffffffffffffffffffffffffff82141561151b5761151a611526565b5b600182019050919050565b7f4e487b7100000000000000000000000000000000000000000000000000000000600052601160045260246000fd5b7f5468652073656e74207072696365206d75737420626520657175616c20746f2060008201527f636f6d6d6973696f6e0000000000000000000000000000000000000000000000602082015250565b7f4e6f7420656e6f7567682076616c75652073656e740000000000000000000000600082015250565b7f5072696365206d7573742062652067726561746572207468616e203000000000600082015250565b6115ff81611483565b811461160a57600080fd5b50565b611616816114d3565b811461162157600080fd5b5056fea2646970667358221220de12d6ccd9d24d23b22d0d7daaa1e69f0d61bdb09a57c2f5060857a0bfa0144764736f6c63430008040033",
  "immutableReferences": {},
  "source": "// SPDX-License-Identifier: MIT\r\npragma solidity >=0.8.0;\r\n\r\nimport \"@openzeppelin/contracts/token/ERC721/ERC721.sol\";\r\n\r\ncontract Marketplace {\r\n    // struct for NFTs\r\n    struct NFT_Item {\r\n        uint256 itemId;\r\n        address itemContract;\r\n        uint256 tokenId;\r\n        address payable owner;\r\n        address payable seller;\r\n        uint256 price;\r\n        bool sold;\r\n    }\r\n\r\n    // event that is emitted when a new NFT is created\r\n    event ItemCreated(\r\n        uint256 indexed itemId,\r\n        address indexed itemContract,\r\n        uint256 indexed tokenId,\r\n        address seller,\r\n        address owner,\r\n        uint256 price,\r\n        bool sold\r\n    );\r\n\r\n    // state variables\r\n    uint256 private itemID;\r\n    address payable private owner;\r\n    uint256 private commission;\r\n\r\n    // mapping from ItemID to NFT_Item struct\r\n    mapping(uint256 => NFT_Item) private idToItem;\r\n\r\n    constructor() {\r\n        owner = payable(msg.sender);\r\n        commission = 0.00025 ether;\r\n    }\r\n\r\n    // function to return commission for listing an nft\r\n    function getCommission() public view returns (uint256) {\r\n        return commission;\r\n    }\r\n\r\n    // create a new Item\r\n    function createItem(\r\n        address itemContract,\r\n        uint256 tokenId,\r\n        uint256 price\r\n    ) public payable {\r\n        require(price > 0, \"Price must be greater than 0\");\r\n        require(\r\n            msg.value == commission,\r\n            \"The sent price must be equal to commision\"\r\n        );\r\n\r\n        idToItem[itemID] = NFT_Item(\r\n            itemID,\r\n            itemContract,\r\n            tokenId,\r\n            payable(msg.sender),\r\n            payable(address(0)),\r\n            price,\r\n            false\r\n        );\r\n\r\n        ERC721(itemContract).transferFrom(msg.sender, address(this), tokenId);\r\n\r\n        emit ItemCreated(\r\n            itemID,\r\n            itemContract,\r\n            tokenId,\r\n            msg.sender,\r\n            address(0),\r\n            price,\r\n            false\r\n        );\r\n\r\n        itemID++;\r\n    }\r\n\r\n    // sell an Item\r\n    function sellItem(address itemContract, uint256 _itemId) public payable {\r\n        NFT_Item storage item = idToItem[_itemId];\r\n\r\n        uint256 price = item.price;\r\n        uint256 tokenId = item.tokenId;\r\n\r\n        require(msg.value == price, \"Not enough value sent\");\r\n\r\n        item.seller.transfer(msg.value);\r\n        ERC721(itemContract).transferFrom(address(this), msg.sender, tokenId);\r\n\r\n        item.owner = payable(msg.sender);\r\n        item.sold = true;\r\n\r\n        owner.transfer(commission);\r\n    }\r\n\r\n    // get all the items that are availiable at the market\r\n    function getMarketItems() public view returns (NFT_Item[] memory) {\r\n        uint256 availiable = 0;\r\n        for (uint256 i = 1; i < itemID; i++) {\r\n            if (!idToItem[i].sold) {\r\n                availiable++;\r\n            }\r\n        }\r\n\r\n        NFT_Item[] memory items = new NFT_Item[](availiable);\r\n        uint256 curr = 0;\r\n        for (uint256 i = 0; i < itemID; i++) {\r\n            if (!idToItem[i].sold) {\r\n                items[curr] = idToItem[i];\r\n                curr++;\r\n            }\r\n        }\r\n        return items;\r\n    }\r\n\r\n    // get all the items the user has bought\r\n    function getBoughtItems() public view returns (NFT_Item[] memory) {\r\n        uint256 count = 0;\r\n        for (uint256 i = 1; i < itemID; i++) {\r\n            if (idToItem[i].owner == msg.sender) {\r\n                count++;\r\n            }\r\n        }\r\n        NFT_Item[] memory items = new NFT_Item[](count);\r\n        uint256 curr = 0;\r\n        for (uint256 i = 1; i < itemID; i++) {\r\n            if (idToItem[i].owner == msg.sender) {\r\n                items[curr] = idToItem[i];\r\n                curr++;\r\n            }\r\n        }\r\n        return items;\r\n    }\r\n\r\n    // get all the items the user has created\r\n    function getCreatedItems() public view returns (NFT_Item[] memory) {\r\n        uint256 count = 0;\r\n        for (uint256 i = 1; i < itemID; i++) {\r\n            if (idToItem[i].seller == msg.sender) {\r\n                count++;\r\n            }\r\n        }\r\n        NFT_Item[] memory items = new NFT_Item[](count);\r\n        uint256 curr = 0;\r\n        for (uint256 i = 1; i < itemID; i++) {\r\n            if (idToItem[i].seller == msg.sender) {\r\n                items[curr] = idToItem[i];\r\n                curr++;\r\n            }\r\n        }\r\n        return items;\r\n    }\r\n}\r\n",
  "sourcePath": "C:\\Users\\priya\\OneDrive\\Desktop\\Projects\\nft-marketplace\\contracts\\Marketplace.sol",
  "compiler": {
    "name": "solc",
    "version": "0.8.4+commit.c7e474f2.Emscripten.clang"
  },
  "schemaVersion": "3.4.3",
  "updatedAt": "2021-12-15T13:12:01.503Z",
  "networkType": "ethereum",
  "devdoc": {
    "kind": "dev",
    "methods": {},
    "version": 1
  },
  "userdoc": {
    "kind": "user",
    "methods": {},
    "version": 1
  }
}