{
  "contractName": "Marketplace",
  "abi": [
    {
      "inputs": [],
      "stateMutability": "nonpayable",
      "type": "constructor"
    },
    {
      "inputs": [],
      "name": "itemID",
      "outputs": [
        {
          "internalType": "uint256",
          "name": "",
          "type": "uint256"
        }
      ],
      "stateMutability": "view",
      "type": "function",
      "constant": true
    },
    {
      "inputs": [],
      "name": "getCommission",
      "outputs": [
        {
          "internalType": "uint256",
          "name": "",
          "type": "uint256"
        }
      ],
      "stateMutability": "view",
      "type": "function",
      "constant": true
    },
    {
      "inputs": [
        {
          "internalType": "address",
          "name": "itemContract",
          "type": "address"
        },
        {
          "internalType": "uint256",
          "name": "tokenId",
          "type": "uint256"
        }
      ],
      "name": "createItem",
      "outputs": [],
      "stateMutability": "payable",
      "type": "function",
      "payable": true
    },
    {
      "inputs": [
        {
          "internalType": "uint256",
          "name": "_itemId",
          "type": "uint256"
        },
        {
          "internalType": "uint256",
          "name": "price",
          "type": "uint256"
        }
      ],
      "name": "listItem",
      "outputs": [],
      "stateMutability": "nonpayable",
      "type": "function"
    },
    {
      "inputs": [
        {
          "internalType": "address",
          "name": "itemContract",
          "type": "address"
        },
        {
          "internalType": "uint256",
          "name": "_itemId",
          "type": "uint256"
        }
      ],
      "name": "sellItem",
      "outputs": [],
      "stateMutability": "payable",
      "type": "function",
      "payable": true
    },
    {
      "inputs": [],
      "name": "getMarketItems",
      "outputs": [
        {
          "internalType": "uint256[]",
          "name": "",
          "type": "uint256[]"
        },
        {
          "internalType": "address[]",
          "name": "",
          "type": "address[]"
        },
        {
          "internalType": "uint256[]",
          "name": "",
          "type": "uint256[]"
        },
        {
          "internalType": "address payable[]",
          "name": "",
          "type": "address[]"
        },
        {
          "internalType": "address payable[]",
          "name": "",
          "type": "address[]"
        },
        {
          "internalType": "uint256[]",
          "name": "",
          "type": "uint256[]"
        },
        {
          "internalType": "bool[]",
          "name": "",
          "type": "bool[]"
        }
      ],
      "stateMutability": "view",
      "type": "function",
      "constant": true
    },
    {
      "inputs": [],
      "name": "getBoughtItems",
      "outputs": [
        {
          "internalType": "uint256[]",
          "name": "",
          "type": "uint256[]"
        },
        {
          "internalType": "address[]",
          "name": "",
          "type": "address[]"
        },
        {
          "internalType": "uint256[]",
          "name": "",
          "type": "uint256[]"
        },
        {
          "internalType": "address payable[]",
          "name": "",
          "type": "address[]"
        },
        {
          "internalType": "address payable[]",
          "name": "",
          "type": "address[]"
        },
        {
          "internalType": "uint256[]",
          "name": "",
          "type": "uint256[]"
        },
        {
          "internalType": "bool[]",
          "name": "",
          "type": "bool[]"
        }
      ],
      "stateMutability": "view",
      "type": "function",
      "constant": true
    },
    {
      "inputs": [],
      "name": "getCreatedItems",
      "outputs": [
        {
          "internalType": "uint256[]",
          "name": "",
          "type": "uint256[]"
        },
        {
          "internalType": "address[]",
          "name": "",
          "type": "address[]"
        },
        {
          "internalType": "uint256[]",
          "name": "",
          "type": "uint256[]"
        },
        {
          "internalType": "address payable[]",
          "name": "",
          "type": "address[]"
        },
        {
          "internalType": "address payable[]",
          "name": "",
          "type": "address[]"
        },
        {
          "internalType": "uint256[]",
          "name": "",
          "type": "uint256[]"
        },
        {
          "internalType": "bool[]",
          "name": "",
          "type": "bool[]"
        }
      ],
      "stateMutability": "view",
      "type": "function",
      "constant": true
    }
  ],
  "bytecode": "0x608060405234801561001057600080fd5b5033600160006101000a81548173ffffffffffffffffffffffffffffffffffffffff021916908373ffffffffffffffffffffffffffffffffffffffff16021790555065e35fa931a0006002819055506001600081905550612de3806100766000396000f3fe60806040526004361061007b5760003560e01c806382750d531161004e57806382750d5314610129578063883efa67146101455780638edfa6cb1461016e578063e65d6b491461019f5761007b565b8063096c5e1a1461008057806323a2ba521461009c57806329aa3a42146100cd57806343cdef60146100fe575b600080fd5b61009a60048036038101906100959190612397565b6101ca565b005b3480156100a857600080fd5b506100b1610563565b6040516100c4979695949392919061279f565b60405180910390f35b3480156100d957600080fd5b506100e2610df6565b6040516100f5979695949392919061279f565b60405180910390f35b34801561010a57600080fd5b506101136115ff565b604051610120919061293f565b60405180910390f35b610143600480360381019061013e9190612397565b611605565b005b34801561015157600080fd5b5061016c600480360381019061016791906123d3565b611903565b005b34801561017a57600080fd5b50610183611ace565b604051610196979695949392919061279f565b60405180910390f35b3480156101ab57600080fd5b506101b4612325565b6040516101c1919061293f565b60405180910390f35b80600060036000838152602001908152602001600020600001541415610225576040517f08c379a000000000000000000000000000000000000000000000000000000000815260040161021c906128bf565b60405180910390fd5b6000600360008481526020019081526020016000209050600115158160060160009054906101000a900460ff16151514610294576040517f08c379a000000000000000000000000000000000000000000000000000000000815260040161028b9061283f565b60405180910390fd5b6000816005015490508034146102df576040517f08c379a00000000000000000000000000000000000000000000000000000000081526004016102d6906128df565b60405180910390fd5b60006103e8346103e36102f29190612a80565b6102fc9190612a4f565b905060006103e83460056103109190612a80565b61031a9190612a4f565b90508360040160009054906101000a900473ffffffffffffffffffffffffffffffffffffffff1673ffffffffffffffffffffffffffffffffffffffff166108fc839081150290604051600060405180830381858888f19350505050158015610386573d6000803e3d6000fd5b508360030160009054906101000a900473ffffffffffffffffffffffffffffffffffffffff1673ffffffffffffffffffffffffffffffffffffffff166108fc829081150290604051600060405180830381858888f193505050501580156103f1573d6000803e3d6000fd5b506000846002015490508773ffffffffffffffffffffffffffffffffffffffff166323b872dd8660040160009054906101000a900473ffffffffffffffffffffffffffffffffffffffff1633846040518463ffffffff1660e01b815260040161045c93929190612768565b600060405180830381600087803b15801561047657600080fd5b505af115801561048a573d6000803e3d6000fd5b50505050338560040160006101000a81548173ffffffffffffffffffffffffffffffffffffffff021916908373ffffffffffffffffffffffffffffffffffffffff16021790555060008560060160006101000a81548160ff021916908315150217905550600160009054906101000a900473ffffffffffffffffffffffffffffffffffffffff1673ffffffffffffffffffffffffffffffffffffffff166108fc6002549081150290604051600060405180830381858888f19350505050158015610558573d6000803e3d6000fd5b505050505050505050565b6060806060806060806060600080600190505b60005481101561060c573373ffffffffffffffffffffffffffffffffffffffff166003600083815260200190815260200160002060040160009054906101000a900473ffffffffffffffffffffffffffffffffffffffff1673ffffffffffffffffffffffffffffffffffffffff1614156105f95781806105f590612b6a565b9250505b808061060490612b6a565b915050610576565b5060008167ffffffffffffffff81111561064f577f4e487b7100000000000000000000000000000000000000000000000000000000600052604160045260246000fd5b60405190808252806020026020018201604052801561067d5781602001602082028036833780820191505090505b50905060008267ffffffffffffffff8111156106c2577f4e487b7100000000000000000000000000000000000000000000000000000000600052604160045260246000fd5b6040519080825280602002602001820160405280156106f05781602001602082028036833780820191505090505b50905060008367ffffffffffffffff811115610735577f4e487b7100000000000000000000000000000000000000000000000000000000600052604160045260246000fd5b6040519080825280602002602001820160405280156107635781602001602082028036833780820191505090505b50905060008467ffffffffffffffff8111156107a8577f4e487b7100000000000000000000000000000000000000000000000000000000600052604160045260246000fd5b6040519080825280602002602001820160405280156107d65781602001602082028036833780820191505090505b50905060008567ffffffffffffffff81111561081b577f4e487b7100000000000000000000000000000000000000000000000000000000600052604160045260246000fd5b6040519080825280602002602001820160405280156108495781602001602082028036833780820191505090505b50905060008667ffffffffffffffff81111561088e577f4e487b7100000000000000000000000000000000000000000000000000000000600052604160045260246000fd5b6040519080825280602002602001820160405280156108bc5781602001602082028036833780820191505090505b50905060008767ffffffffffffffff811115610901577f4e487b7100000000000000000000000000000000000000000000000000000000600052604160045260246000fd5b60405190808252806020026020018201604052801561092f5781602001602082028036833780820191505090505b509050600080600190505b600054811015610dce576000600360008381526020019081526020016000206040518060e0016040529081600082015481526020016001820160009054906101000a900473ffffffffffffffffffffffffffffffffffffffff1673ffffffffffffffffffffffffffffffffffffffff1673ffffffffffffffffffffffffffffffffffffffff168152602001600282015481526020016003820160009054906101000a900473ffffffffffffffffffffffffffffffffffffffff1673ffffffffffffffffffffffffffffffffffffffff1673ffffffffffffffffffffffffffffffffffffffff1681526020016004820160009054906101000a900473ffffffffffffffffffffffffffffffffffffffff1673ffffffffffffffffffffffffffffffffffffffff1673ffffffffffffffffffffffffffffffffffffffff168152602001600582015481526020016006820160009054906101000a900460ff16151515158152505090503373ffffffffffffffffffffffffffffffffffffffff16816080015173ffffffffffffffffffffffffffffffffffffffff16148015610b1057503373ffffffffffffffffffffffffffffffffffffffff16816060015173ffffffffffffffffffffffffffffffffffffffff1614155b15610dba5780600001518a8481518110610b53577f4e487b7100000000000000000000000000000000000000000000000000000000600052603260045260246000fd5b6020026020010181815250508060200151898481518110610b9d577f4e487b7100000000000000000000000000000000000000000000000000000000600052603260045260246000fd5b602002602001019073ffffffffffffffffffffffffffffffffffffffff16908173ffffffffffffffffffffffffffffffffffffffff16815250508060400151888481518110610c15577f4e487b7100000000000000000000000000000000000000000000000000000000600052603260045260246000fd5b6020026020010181815250508060600151878481518110610c5f577f4e487b7100000000000000000000000000000000000000000000000000000000600052603260045260246000fd5b602002602001019073ffffffffffffffffffffffffffffffffffffffff16908173ffffffffffffffffffffffffffffffffffffffff16815250508060800151868481518110610cd7577f4e487b7100000000000000000000000000000000000000000000000000000000600052603260045260246000fd5b602002602001019073ffffffffffffffffffffffffffffffffffffffff16908173ffffffffffffffffffffffffffffffffffffffff16815250508060a00151858481518110610d4f577f4e487b7100000000000000000000000000000000000000000000000000000000600052603260045260246000fd5b6020026020010181815250508060c00151848481518110610d99577f4e487b7100000000000000000000000000000000000000000000000000000000600052603260045260246000fd5b6020026020010190151590811515815250508280610db690612b6a565b9350505b508080610dc690612b6a565b91505061093a565b50878787878787879f509f509f509f509f509f509f5050505050505050505090919293949596565b6060806060806060806060600080600190505b600054811015610e6557600115156003600083815260200190815260200160002060060160009054906101000a900460ff1615151415610e52578180610e4e90612b6a565b9250505b8080610e5d90612b6a565b915050610e09565b5060008167ffffffffffffffff811115610ea8577f4e487b7100000000000000000000000000000000000000000000000000000000600052604160045260246000fd5b604051908082528060200260200182016040528015610ed65781602001602082028036833780820191505090505b50905060008267ffffffffffffffff811115610f1b577f4e487b7100000000000000000000000000000000000000000000000000000000600052604160045260246000fd5b604051908082528060200260200182016040528015610f495781602001602082028036833780820191505090505b50905060008367ffffffffffffffff811115610f8e577f4e487b7100000000000000000000000000000000000000000000000000000000600052604160045260246000fd5b604051908082528060200260200182016040528015610fbc5781602001602082028036833780820191505090505b50905060008467ffffffffffffffff811115611001577f4e487b7100000000000000000000000000000000000000000000000000000000600052604160045260246000fd5b60405190808252806020026020018201604052801561102f5781602001602082028036833780820191505090505b50905060008567ffffffffffffffff811115611074577f4e487b7100000000000000000000000000000000000000000000000000000000600052604160045260246000fd5b6040519080825280602002602001820160405280156110a25781602001602082028036833780820191505090505b50905060008667ffffffffffffffff8111156110e7577f4e487b7100000000000000000000000000000000000000000000000000000000600052604160045260246000fd5b6040519080825280602002602001820160405280156111155781602001602082028036833780820191505090505b50905060008767ffffffffffffffff81111561115a577f4e487b7100000000000000000000000000000000000000000000000000000000600052604160045260246000fd5b6040519080825280602002602001820160405280156111885781602001602082028036833780820191505090505b5090506000805b6000548110156115d7576000600360008381526020019081526020016000206040518060e0016040529081600082015481526020016001820160009054906101000a900473ffffffffffffffffffffffffffffffffffffffff1673ffffffffffffffffffffffffffffffffffffffff1673ffffffffffffffffffffffffffffffffffffffff168152602001600282015481526020016003820160009054906101000a900473ffffffffffffffffffffffffffffffffffffffff1673ffffffffffffffffffffffffffffffffffffffff1673ffffffffffffffffffffffffffffffffffffffff1681526020016004820160009054906101000a900473ffffffffffffffffffffffffffffffffffffffff1673ffffffffffffffffffffffffffffffffffffffff1673ffffffffffffffffffffffffffffffffffffffff168152602001600582015481526020016006820160009054906101000a900460ff16151515158152505090506003600083815260200190815260200160002060060160009054906101000a900460ff166115c35780600001518a848151811061135c577f4e487b7100000000000000000000000000000000000000000000000000000000600052603260045260246000fd5b60200260200101818152505080602001518984815181106113a6577f4e487b7100000000000000000000000000000000000000000000000000000000600052603260045260246000fd5b602002602001019073ffffffffffffffffffffffffffffffffffffffff16908173ffffffffffffffffffffffffffffffffffffffff1681525050806040015188848151811061141e577f4e487b7100000000000000000000000000000000000000000000000000000000600052603260045260246000fd5b6020026020010181815250508060600151878481518110611468577f4e487b7100000000000000000000000000000000000000000000000000000000600052603260045260246000fd5b602002602001019073ffffffffffffffffffffffffffffffffffffffff16908173ffffffffffffffffffffffffffffffffffffffff168152505080608001518684815181106114e0577f4e487b7100000000000000000000000000000000000000000000000000000000600052603260045260246000fd5b602002602001019073ffffffffffffffffffffffffffffffffffffffff16908173ffffffffffffffffffffffffffffffffffffffff16815250508060a00151858481518110611558577f4e487b7100000000000000000000000000000000000000000000000000000000600052603260045260246000fd5b6020026020010181815250508060c001518484815181106115a2577f4e487b7100000000000000000000000000000000000000000000000000000000600052603260045260246000fd5b60200260200101901515908115158152505082806115bf90612b6a565b9350505b5080806115cf90612b6a565b91505061118f565b50878787878787879f509f509f509f509f509f509f5050505050505050505090919293949596565b60005481565b81813373ffffffffffffffffffffffffffffffffffffffff168273ffffffffffffffffffffffffffffffffffffffff16636352211e836040518263ffffffff1660e01b8152600401611657919061293f565b60206040518083038186803b15801561166f57600080fd5b505afa158015611683573d6000803e3d6000fd5b505050506040513d601f19601f820116820180604052508101906116a7919061236e565b73ffffffffffffffffffffffffffffffffffffffff16146116fd576040517f08c379a00000000000000000000000000000000000000000000000000000000081526004016116f49061289f565b60405180910390fd5b6002543414611741576040517f08c379a00000000000000000000000000000000000000000000000000000000081526004016117389061287f565b60405180910390fd5b6040518060e0016040528060005481526020018573ffffffffffffffffffffffffffffffffffffffff1681526020018481526020013373ffffffffffffffffffffffffffffffffffffffff1681526020013373ffffffffffffffffffffffffffffffffffffffff168152602001600081526020016000151581525060036000805481526020019081526020016000206000820151816000015560208201518160010160006101000a81548173ffffffffffffffffffffffffffffffffffffffff021916908373ffffffffffffffffffffffffffffffffffffffff1602179055506040820151816002015560608201518160030160006101000a81548173ffffffffffffffffffffffffffffffffffffffff021916908373ffffffffffffffffffffffffffffffffffffffff16021790555060808201518160040160006101000a81548173ffffffffffffffffffffffffffffffffffffffff021916908373ffffffffffffffffffffffffffffffffffffffff16021790555060a0820151816005015560c08201518160060160006101000a81548160ff0219169083151502179055509050506000808154809291906118f890612b6a565b919050555050505050565b8160006003600083815260200190815260200160002060000154141561195e576040517f08c379a0000000000000000000000000000000000000000000000000000000008152600401611955906128bf565b60405180910390fd5b60006003600085815260200190815260200160002090503373ffffffffffffffffffffffffffffffffffffffff168160040160009054906101000a900473ffffffffffffffffffffffffffffffffffffffff1673ffffffffffffffffffffffffffffffffffffffff1614611a07576040517f08c379a00000000000000000000000000000000000000000000000000000000081526004016119fe9061285f565b60405180910390fd5b600015158160060160009054906101000a900460ff16151514611a5f576040517f08c379a0000000000000000000000000000000000000000000000000000000008152600401611a56906128ff565b60405180910390fd5b60008311611aa2576040517f08c379a0000000000000000000000000000000000000000000000000000000008152600401611a999061291f565b60405180910390fd5b82816005018190555060018160060160006101000a81548160ff02191690831515021790555050505050565b6060806060806060806060600080600190505b600054811015611b77573373ffffffffffffffffffffffffffffffffffffffff166003600083815260200190815260200160002060030160009054906101000a900473ffffffffffffffffffffffffffffffffffffffff1673ffffffffffffffffffffffffffffffffffffffff161415611b64578180611b6090612b6a565b9250505b8080611b6f90612b6a565b915050611ae1565b5060008167ffffffffffffffff811115611bba577f4e487b7100000000000000000000000000000000000000000000000000000000600052604160045260246000fd5b604051908082528060200260200182016040528015611be85781602001602082028036833780820191505090505b50905060008267ffffffffffffffff811115611c2d577f4e487b7100000000000000000000000000000000000000000000000000000000600052604160045260246000fd5b604051908082528060200260200182016040528015611c5b5781602001602082028036833780820191505090505b50905060008367ffffffffffffffff811115611ca0577f4e487b7100000000000000000000000000000000000000000000000000000000600052604160045260246000fd5b604051908082528060200260200182016040528015611cce5781602001602082028036833780820191505090505b50905060008467ffffffffffffffff811115611d13577f4e487b7100000000000000000000000000000000000000000000000000000000600052604160045260246000fd5b604051908082528060200260200182016040528015611d415781602001602082028036833780820191505090505b50905060008567ffffffffffffffff811115611d86577f4e487b7100000000000000000000000000000000000000000000000000000000600052604160045260246000fd5b604051908082528060200260200182016040528015611db45781602001602082028036833780820191505090505b50905060008667ffffffffffffffff811115611df9577f4e487b7100000000000000000000000000000000000000000000000000000000600052604160045260246000fd5b604051908082528060200260200182016040528015611e275781602001602082028036833780820191505090505b50905060008767ffffffffffffffff811115611e6c577f4e487b7100000000000000000000000000000000000000000000000000000000600052604160045260246000fd5b604051908082528060200260200182016040528015611e9a5781602001602082028036833780820191505090505b509050600080600190505b6000548110156122fd576000600360008381526020019081526020016000206040518060e0016040529081600082015481526020016001820160009054906101000a900473ffffffffffffffffffffffffffffffffffffffff1673ffffffffffffffffffffffffffffffffffffffff1673ffffffffffffffffffffffffffffffffffffffff168152602001600282015481526020016003820160009054906101000a900473ffffffffffffffffffffffffffffffffffffffff1673ffffffffffffffffffffffffffffffffffffffff1673ffffffffffffffffffffffffffffffffffffffff1681526020016004820160009054906101000a900473ffffffffffffffffffffffffffffffffffffffff1673ffffffffffffffffffffffffffffffffffffffff1673ffffffffffffffffffffffffffffffffffffffff168152602001600582015481526020016006820160009054906101000a900460ff16151515158152505090503373ffffffffffffffffffffffffffffffffffffffff16816060015173ffffffffffffffffffffffffffffffffffffffff1614156122e95780600001518a8481518110612082577f4e487b7100000000000000000000000000000000000000000000000000000000600052603260045260246000fd5b60200260200101818152505080602001518984815181106120cc577f4e487b7100000000000000000000000000000000000000000000000000000000600052603260045260246000fd5b602002602001019073ffffffffffffffffffffffffffffffffffffffff16908173ffffffffffffffffffffffffffffffffffffffff16815250508060400151888481518110612144577f4e487b7100000000000000000000000000000000000000000000000000000000600052603260045260246000fd5b602002602001018181525050806060015187848151811061218e577f4e487b7100000000000000000000000000000000000000000000000000000000600052603260045260246000fd5b602002602001019073ffffffffffffffffffffffffffffffffffffffff16908173ffffffffffffffffffffffffffffffffffffffff16815250508060800151868481518110612206577f4e487b7100000000000000000000000000000000000000000000000000000000600052603260045260246000fd5b602002602001019073ffffffffffffffffffffffffffffffffffffffff16908173ffffffffffffffffffffffffffffffffffffffff16815250508060a0015185848151811061227e577f4e487b7100000000000000000000000000000000000000000000000000000000600052603260045260246000fd5b6020026020010181815250508060c001518484815181106122c8577f4e487b7100000000000000000000000000000000000000000000000000000000600052603260045260246000fd5b60200260200101901515908115158152505082806122e590612b6a565b9350505b5080806122f590612b6a565b915050611ea5565b50878787878787879f509f509f509f509f509f509f5050505050505050505090919293949596565b6000600254905090565b60008135905061233e81612d7f565b92915050565b60008151905061235381612d7f565b92915050565b60008135905061236881612d96565b92915050565b60006020828403121561238057600080fd5b600061238e84828501612344565b91505092915050565b600080604083850312156123aa57600080fd5b60006123b88582860161232f565b92505060206123c985828601612359565b9150509250929050565b600080604083850312156123e657600080fd5b60006123f485828601612359565b925050602061240585828601612359565b9150509250929050565b600061241b838361247e565b60208301905092915050565b6000612433838361248d565b60208301905092915050565b600061244b8383612623565b60208301905092915050565b6000612463838361274a565b60208301905092915050565b61247881612b34565b82525050565b61248781612aec565b82525050565b61249681612ada565b82525050565b6124a581612ada565b82525050565b60006124b68261299a565b6124c081856129fa565b93506124cb8361295a565b8060005b838110156124fc5781516124e38882612427565b97506124ee836129c6565b9250506001810190506124cf565b5085935050505092915050565b6000612514826129a5565b61251e8185612a0b565b93506125298361296a565b8060005b8381101561255a578151612541888261240f565b975061254c836129d3565b92505060018101905061252d565b5085935050505092915050565b6000612572826129b0565b61257c8185612a1c565b93506125878361297a565b8060005b838110156125b857815161259f888261243f565b97506125aa836129e0565b92505060018101905061258b565b5085935050505092915050565b60006125d0826129bb565b6125da8185612a2d565b93506125e58361298a565b8060005b838110156126165781516125fd8882612457565b9750612608836129ed565b9250506001810190506125e9565b5085935050505092915050565b61262c81612afe565b82525050565b600061263f602083612a3e565b915061264a82612c11565b602082019050919050565b6000612662601883612a3e565b915061266d82612c3a565b602082019050919050565b6000612685602983612a3e565b915061269082612c63565b604082019050919050565b60006126a8601b83612a3e565b91506126b382612cb2565b602082019050919050565b60006126cb601283612a3e565b91506126d682612cdb565b602082019050919050565b60006126ee601583612a3e565b91506126f982612d04565b602082019050919050565b6000612711601383612a3e565b915061271c82612d2d565b602082019050919050565b6000612734601c83612a3e565b915061273f82612d56565b602082019050919050565b61275381612b2a565b82525050565b61276281612b2a565b82525050565b600060608201905061277d600083018661246f565b61278a602083018561249c565b6127976040830184612759565b949350505050565b600060e08201905081810360008301526127b9818a6125c5565b905081810360208301526127cd81896124ab565b905081810360408301526127e181886125c5565b905081810360608301526127f58187612509565b905081810360808301526128098186612509565b905081810360a083015261281d81856125c5565b905081810360c08301526128318184612567565b905098975050505050505050565b6000602082019050818103600083015261285881612632565b9050919050565b6000602082019050818103600083015261287881612655565b9050919050565b6000602082019050818103600083015261289881612678565b9050919050565b600060208201905081810360008301526128b88161269b565b9050919050565b600060208201905081810360008301526128d8816126be565b9050919050565b600060208201905081810360008301526128f8816126e1565b9050919050565b6000602082019050818103600083015261291881612704565b9050919050565b6000602082019050818103600083015261293881612727565b9050919050565b60006020820190506129546000830184612759565b92915050565b6000819050602082019050919050565b6000819050602082019050919050565b6000819050602082019050919050565b6000819050602082019050919050565b600081519050919050565b600081519050919050565b600081519050919050565b600081519050919050565b6000602082019050919050565b6000602082019050919050565b6000602082019050919050565b6000602082019050919050565b600082825260208201905092915050565b600082825260208201905092915050565b600082825260208201905092915050565b600082825260208201905092915050565b600082825260208201905092915050565b6000612a5a82612b2a565b9150612a6583612b2a565b925082612a7557612a74612be2565b5b828204905092915050565b6000612a8b82612b2a565b9150612a9683612b2a565b9250817fffffffffffffffffffffffffffffffffffffffffffffffffffffffffffffffff0483118215151615612acf57612ace612bb3565b5b828202905092915050565b6000612ae582612b0a565b9050919050565b6000612af782612b0a565b9050919050565b60008115159050919050565b600073ffffffffffffffffffffffffffffffffffffffff82169050919050565b6000819050919050565b6000612b3f82612b46565b9050919050565b6000612b5182612b58565b9050919050565b6000612b6382612b0a565b9050919050565b6000612b7582612b2a565b91507fffffffffffffffffffffffffffffffffffffffffffffffffffffffffffffffff821415612ba857612ba7612bb3565b5b600182019050919050565b7f4e487b7100000000000000000000000000000000000000000000000000000000600052601160045260246000fd5b7f4e487b7100000000000000000000000000000000000000000000000000000000600052601260045260246000fd5b7f4974656d206973206e6f74206c6973746564206f6e20746865206d61726b6574600082015250565b7f4f6e6c79206974656d206f776e65722063616e206c6973740000000000000000600082015250565b7f5468652073656e74207072696365206d75737420626520657175616c20746f2060008201527f636f6d6d6973696f6e0000000000000000000000000000000000000000000000602082015250565b7f43616e206f6e6c792061646420796f7572206f776e20746f6b656e0000000000600082015250565b7f4e6f2073756368206974656d2065786973740000000000000000000000000000600082015250565b7f4e6f7420656e6f7567682076616c75652073656e740000000000000000000000600082015250565b7f4974656d20616c7265616479206c697374656400000000000000000000000000600082015250565b7f5072696365206d7573742062652067726561746572207468616e203000000000600082015250565b612d8881612ada565b8114612d9357600080fd5b50565b612d9f81612b2a565b8114612daa57600080fd5b5056fea2646970667358221220cde00def77c125bcc9e682c5cc17e55a04836c0c528b860a73cf4889148fd99e64736f6c63430008040033",
  "immutableReferences": {},
  "source": "// SPDX-License-Identifier: MIT\r\npragma solidity >=0.8.0;\r\npragma experimental ABIEncoderV2;\r\n\r\nimport \"@openzeppelin/contracts/token/ERC721/ERC721.sol\";\r\n\r\ncontract Marketplace {\r\n    /*\r\n        - this struct is used to store the details of the Items\r\n     */\r\n    struct NFT_Item {\r\n        uint256 itemId;\r\n        address itemContract;\r\n        uint256 tokenId;\r\n        address payable minter;\r\n        address payable owner;\r\n        uint256 price;\r\n        bool listed;\r\n    }\r\n\r\n    /*\r\n        State Variables\r\n            - Current Item Id\r\n            - Owner of the Marketplace\r\n            - Commission per sale of NFT\r\n     */\r\n    uint256 public itemID;\r\n    address payable private owner;\r\n    uint256 private commission;\r\n\r\n    /*\r\n        mapping from ItemID to NFT_Item struct\r\n    */\r\n    mapping(uint256 => NFT_Item) private idToItem;\r\n\r\n    /*\r\n        constructor sets the owner of contract and the commission fees\r\n     */\r\n    constructor() {\r\n        owner = payable(msg.sender);\r\n        commission = 0.00025 ether;\r\n        itemID = 1;\r\n    }\r\n\r\n    /*\r\n        - this function returns the commission price for listing an nft on this market place\r\n        - this commission goes to the owner of this marketplace\r\n        - the commission is transfered to the owner when the listed nft is sold\r\n     */\r\n    function getCommission() public view returns (uint256) {\r\n        return commission;\r\n    }\r\n\r\n    /*\r\n        - this function creates an external nft as an item on the market place\r\n        - for listing on the marketplace, the sender must pay the commission fees; the listing price should be greater than 0;\r\n        the owner of the token can only list the token\r\n        - intially the item is not listed for sale\r\n        - the owner and minter of the token is set to msg.sender and it's price is set to 0\r\n    */\r\n    function createItem(address itemContract, uint256 tokenId)\r\n        public\r\n        payable\r\n        TokenOwnerOnly(itemContract, tokenId)\r\n    {\r\n        require(\r\n            msg.value == commission,\r\n            \"The sent price must be equal to commision\"\r\n        );\r\n\r\n        idToItem[itemID] = NFT_Item(\r\n            itemID,\r\n            itemContract,\r\n            tokenId,\r\n            payable(msg.sender),\r\n            payable(msg.sender),\r\n            0,\r\n            false\r\n        );\r\n        itemID++;\r\n    }\r\n\r\n    /*\r\n        - function to list items that are not currently listed\r\n        - first check : If Item with the given _itemId exist or not\r\n        - second check : whether the current item's owner is the same as the msg.sender\r\n        - third check : if the Item is already listed\r\n        - fourth check : if the given price is greater than 0\r\n        - if all the conditions are satisfied, change the listed value of the Item to true and set the price as specifed\r\n     */\r\n    function listItem(uint256 _itemId, uint256 price)\r\n        public\r\n        ItemExist(_itemId)\r\n    {\r\n        NFT_Item storage item = idToItem[_itemId];\r\n        require(item.owner == msg.sender, \"Only item owner can list\");\r\n        require(item.listed == false, \"Item already listed\");\r\n        require(price > 0, \"Price must be greater than 0\");\r\n\r\n        item.price = price;\r\n        item.listed = true;\r\n    }\r\n\r\n    /*\r\n        - this function is used to sell listed items on the marketplace\r\n        - first check : if Item with given _itemId exist or not\r\n        - second check : whether the item is listed on the marketplace or not\r\n        - third check : if the buyer has sent enough money\r\n        - if all conditions are true then transfer 99.5% amount to the owner of the item and 0.5% to the minter of the item\r\n        - transfer the nft from the previous owner to the new onwer\r\n        - change the owner and listing status of the item\r\n     */\r\n    function sellItem(address itemContract, uint256 _itemId)\r\n        public\r\n        payable\r\n        ItemExist(_itemId)\r\n    {\r\n        NFT_Item storage item = idToItem[_itemId];\r\n\r\n        require(item.listed == true, \"Item is not listed on the market\");\r\n\r\n        uint256 price = item.price;\r\n        require(msg.value == price, \"Not enough value sent\");\r\n\r\n        uint256 ownerAmt = (995 * msg.value) / 1000;\r\n        uint256 minterAmt = (5 * msg.value) / 1000;\r\n\r\n        item.owner.transfer(ownerAmt);\r\n        item.minter.transfer(minterAmt);\r\n\r\n        uint256 tokenId = item.tokenId;\r\n\r\n        ERC721(itemContract).transferFrom(item.owner, msg.sender, tokenId);\r\n\r\n        item.owner = payable(msg.sender);\r\n        item.listed = false;\r\n\r\n        owner.transfer(commission);\r\n    }\r\n\r\n    /*\r\n        - this function is used to get the items that are listed for sale in the marketplace\r\n        - first find the number of such items\r\n        - then create an array of type NFT_Item of the given size\r\n        - iterater over all the items and add them to the array if their listing status is true\r\n        - return the struct array\r\n    */\r\n    function getMarketItems()\r\n        public\r\n        view\r\n        returns (\r\n            uint256[] memory,\r\n            address[] memory,\r\n            uint256[] memory,\r\n            address payable[] memory,\r\n            address payable[] memory,\r\n            uint256[] memory,\r\n            bool[] memory\r\n        )\r\n    {\r\n        uint256 availiable = 0;\r\n        for (uint256 i = 1; i < itemID; i++) {\r\n            if (idToItem[i].listed == true) {\r\n                availiable++;\r\n            }\r\n        }\r\n\r\n        uint256[] memory itemId = new uint256[](availiable);\r\n        address[] memory itemContract = new address[](availiable);\r\n        uint256[] memory tokenId = new uint256[](availiable);\r\n        address payable[] memory minters = new address payable[](availiable);\r\n        address payable[] memory owners = new address payable[](availiable);\r\n        uint256[] memory price = new uint256[](availiable);\r\n        bool[] memory listed = new bool[](availiable);\r\n        uint256 curr = 0;\r\n        for (uint256 i = 0; i < itemID; i++) {\r\n            NFT_Item memory item = idToItem[i];\r\n            if (!idToItem[i].listed) {\r\n                itemId[curr] = item.itemId;\r\n                itemContract[curr] = item.itemContract;\r\n                tokenId[curr] = item.tokenId;\r\n                minters[curr] = item.minter;\r\n                owners[curr] = item.owner;\r\n                price[curr] = item.price;\r\n                listed[curr] = item.listed;\r\n                curr++;\r\n            }\r\n        }\r\n        return (itemId, itemContract, tokenId, minters, owners, price, listed);\r\n    }\r\n\r\n    /*\r\n        - this function returns all the items bought by the current user\r\n        - iterater over all the NFT_Items and count the number of items which the user is the owner of but not the minter\r\n        - then create an array of type NFT_Item of the given size\r\n        - iterater over all the items and add them to the array if given condition is true\r\n        - return the struct array\r\n     */\r\n    function getBoughtItems()\r\n        public\r\n        view\r\n        returns (\r\n            uint256[] memory,\r\n            address[] memory,\r\n            uint256[] memory,\r\n            address payable[] memory,\r\n            address payable[] memory,\r\n            uint256[] memory,\r\n            bool[] memory\r\n        )\r\n    {\r\n        uint256 count = 0;\r\n        for (uint256 i = 1; i < itemID; i++) {\r\n            if ((idToItem[i].owner == msg.sender)) {\r\n                count++;\r\n            }\r\n        }\r\n        uint256[] memory itemId = new uint256[](count);\r\n        address[] memory itemContract = new address[](count);\r\n        uint256[] memory tokenId = new uint256[](count);\r\n        address payable[] memory minters = new address payable[](count);\r\n        address payable[] memory owners = new address payable[](count);\r\n        uint256[] memory price = new uint256[](count);\r\n        bool[] memory listed = new bool[](count);\r\n\r\n        uint256 curr = 0;\r\n        for (uint256 i = 1; i < itemID; i++) {\r\n            NFT_Item memory item = idToItem[i];\r\n            if ((item.owner == msg.sender) && (item.minter != msg.sender)) {\r\n                itemId[curr] = item.itemId;\r\n                itemContract[curr] = item.itemContract;\r\n                tokenId[curr] = item.tokenId;\r\n                minters[curr] = item.minter;\r\n                owners[curr] = item.owner;\r\n                price[curr] = item.price;\r\n                listed[curr] = item.listed;\r\n                curr++;\r\n            }\r\n        }\r\n        return (itemId, itemContract, tokenId, minters, owners, price, listed);\r\n    }\r\n\r\n    /*\r\n        - this function returns all the items that are created by the current user\r\n        - iterater over all the NFT_Items and count the number of items which the user is the minter\r\n        - then create an array of type NFT_Item of the given size\r\n        - iterater over all the items and add them to the array if given condition is true\r\n        - return the struct array\r\n    */\r\n    function getCreatedItems()\r\n        public\r\n        view\r\n        returns (\r\n            uint256[] memory,\r\n            address[] memory,\r\n            uint256[] memory,\r\n            address payable[] memory,\r\n            address payable[] memory,\r\n            uint256[] memory,\r\n            bool[] memory\r\n        )\r\n    {\r\n        uint256 count = 0;\r\n        for (uint256 i = 1; i < itemID; i++) {\r\n            if (idToItem[i].minter == msg.sender) {\r\n                count++;\r\n            }\r\n        }\r\n        uint256[] memory itemId = new uint256[](count);\r\n        address[] memory itemContract = new address[](count);\r\n        uint256[] memory tokenId = new uint256[](count);\r\n        address payable[] memory minters = new address payable[](count);\r\n        address payable[] memory owners = new address payable[](count);\r\n        uint256[] memory price = new uint256[](count);\r\n        bool[] memory listed = new bool[](count);\r\n\r\n        uint256 curr = 0;\r\n        for (uint256 i = 1; i < itemID; i++) {\r\n            NFT_Item memory item = idToItem[i];\r\n            if (item.minter == msg.sender) {\r\n                itemId[curr] = item.itemId;\r\n                itemContract[curr] = item.itemContract;\r\n                tokenId[curr] = item.tokenId;\r\n                minters[curr] = item.minter;\r\n                owners[curr] = item.owner;\r\n                price[curr] = item.price;\r\n                listed[curr] = item.listed;\r\n                curr++;\r\n            }\r\n        }\r\n        return (itemId, itemContract, tokenId, minters, owners, price, listed);\r\n    }\r\n\r\n    /*\r\n        Modifiers\r\n     */\r\n    modifier ItemExist(uint256 _itemId) {\r\n        require(idToItem[_itemId].itemId != 0, \"No such item exist\");\r\n        _;\r\n    }\r\n\r\n    modifier TokenOwnerOnly(address itemContract, uint256 tokenId) {\r\n        require(\r\n            ERC721(itemContract).ownerOf(tokenId) == msg.sender,\r\n            \"Can only add your own token\"\r\n        );\r\n        _;\r\n    }\r\n}\r\n",
  "sourcePath": "C:\\Users\\priya\\OneDrive\\Desktop\\Projects\\nft-marketplace\\contracts\\Marketplace.sol",
  "compiler": {
    "name": "solc",
    "version": "0.8.4+commit.c7e474f2.Emscripten.clang"
  },
  "schemaVersion": "3.4.3",
  "updatedAt": "2021-12-17T20:13:45.241Z",
  "networkType": "ethereum",
  "devdoc": {
    "kind": "dev",
    "methods": {},
    "version": 1
  },
  "userdoc": {
    "kind": "user",
    "methods": {},
    "version": 1
  }
}